{
  "contractName": "Supplychain",
  "abi": [
    {
      "anonymous": false,
      "inputs": [
        {
          "indexed": false,
          "internalType": "address",
          "name": "from",
          "type": "address"
        },
        {
          "indexed": false,
          "internalType": "address",
          "name": "to",
          "type": "address"
        },
        {
          "indexed": false,
          "internalType": "uint64",
          "name": "_value",
          "type": "uint64"
        }
      ],
      "name": "Transfer",
      "type": "event"
    },
    {
      "constant": true,
      "inputs": [
        {
          "internalType": "address",
          "name": "",
          "type": "address"
        }
      ],
      "name": "balanceOf",
      "outputs": [
        {
          "internalType": "uint64",
          "name": "",
          "type": "uint64"
        }
      ],
      "payable": false,
      "stateMutability": "view",
      "type": "function"
    },
    {
      "constant": true,
      "inputs": [
        {
          "internalType": "address",
          "name": "",
          "type": "address"
        },
        {
          "internalType": "uint256",
          "name": "",
          "type": "uint256"
        }
      ],
      "name": "consumerOrders",
      "outputs": [
        {
          "internalType": "address",
          "name": "from",
          "type": "address"
        },
        {
          "internalType": "address",
          "name": "to",
          "type": "address"
        },
        {
          "internalType": "uint8",
          "name": "id",
          "type": "uint8"
        },
        {
          "internalType": "uint8",
          "name": "itemId",
          "type": "uint8"
        },
        {
          "internalType": "uint16",
          "name": "quantity",
          "type": "uint16"
        },
        {
          "internalType": "string",
          "name": "quantity_scale",
          "type": "string"
        },
        {
          "internalType": "string",
          "name": "item_name",
          "type": "string"
        },
        {
          "internalType": "uint8",
          "name": "quality",
          "type": "uint8"
        }
      ],
      "payable": false,
      "stateMutability": "view",
      "type": "function"
    },
    {
      "constant": true,
      "inputs": [
        {
          "internalType": "address",
          "name": "",
          "type": "address"
        }
      ],
      "name": "consumers",
      "outputs": [
        {
          "internalType": "address",
          "name": "id",
          "type": "address"
        },
        {
          "internalType": "string",
          "name": "name",
          "type": "string"
        }
      ],
      "payable": false,
      "stateMutability": "view",
      "type": "function"
    },
    {
      "constant": true,
      "inputs": [
        {
          "internalType": "address",
          "name": "",
          "type": "address"
        }
      ],
      "name": "manufacturers",
      "outputs": [
        {
          "internalType": "address",
          "name": "id",
          "type": "address"
        },
        {
          "internalType": "string",
          "name": "name",
          "type": "string"
        }
      ],
      "payable": false,
      "stateMutability": "view",
      "type": "function"
    },
    {
      "constant": true,
      "inputs": [
        {
          "internalType": "uint8",
          "name": "",
          "type": "uint8"
        }
      ],
      "name": "medicines",
      "outputs": [
        {
          "internalType": "uint8",
          "name": "id",
          "type": "uint8"
        },
        {
          "internalType": "string",
          "name": "name",
          "type": "string"
        },
        {
          "internalType": "string",
          "name": "power",
          "type": "string"
        },
        {
          "internalType": "uint8",
          "name": "price",
          "type": "uint8"
        }
      ],
      "payable": false,
      "stateMutability": "view",
      "type": "function"
    },
    {
      "constant": true,
      "inputs": [
        {
          "internalType": "uint8",
          "name": "",
          "type": "uint8"
        },
        {
          "internalType": "uint256",
          "name": "",
          "type": "uint256"
        }
      ],
      "name": "orders",
      "outputs": [
        {
          "internalType": "address",
          "name": "from",
          "type": "address"
        },
        {
          "internalType": "address",
          "name": "to",
          "type": "address"
        },
        {
          "internalType": "uint8",
          "name": "id",
          "type": "uint8"
        },
        {
          "internalType": "uint8",
          "name": "itemId",
          "type": "uint8"
        },
        {
          "internalType": "uint16",
          "name": "quantity",
          "type": "uint16"
        },
        {
          "internalType": "string",
          "name": "quantity_scale",
          "type": "string"
        },
        {
          "internalType": "string",
          "name": "item_name",
          "type": "string"
        },
        {
          "internalType": "uint8",
          "name": "quality",
          "type": "uint8"
        }
      ],
      "payable": false,
      "stateMutability": "view",
      "type": "function"
    },
    {
      "constant": true,
      "inputs": [
        {
          "internalType": "uint8",
          "name": "",
          "type": "uint8"
        }
      ],
      "name": "rawMaterials",
      "outputs": [
        {
          "internalType": "uint8",
          "name": "id",
          "type": "uint8"
        },
        {
          "internalType": "string",
          "name": "name",
          "type": "string"
        }
      ],
      "payable": false,
      "stateMutability": "view",
      "type": "function"
    },
    {
      "constant": true,
      "inputs": [
        {
          "internalType": "address",
          "name": "",
          "type": "address"
        },
        {
          "internalType": "uint256",
          "name": "",
          "type": "uint256"
        }
      ],
      "name": "retailerOrders",
      "outputs": [
        {
          "internalType": "address",
          "name": "from",
          "type": "address"
        },
        {
          "internalType": "address",
          "name": "to",
          "type": "address"
        },
        {
          "internalType": "uint8",
          "name": "id",
          "type": "uint8"
        },
        {
          "internalType": "uint8",
          "name": "itemId",
          "type": "uint8"
        },
        {
          "internalType": "uint16",
          "name": "quantity",
          "type": "uint16"
        },
        {
          "internalType": "string",
          "name": "quantity_scale",
          "type": "string"
        },
        {
          "internalType": "string",
          "name": "item_name",
          "type": "string"
        },
        {
          "internalType": "uint8",
          "name": "quality",
          "type": "uint8"
        }
      ],
      "payable": false,
      "stateMutability": "view",
      "type": "function"
    },
    {
      "constant": true,
      "inputs": [
        {
          "internalType": "address",
          "name": "",
          "type": "address"
        }
      ],
      "name": "retailers",
      "outputs": [
        {
          "internalType": "address",
          "name": "id",
          "type": "address"
        },
        {
          "internalType": "string",
          "name": "name",
          "type": "string"
        }
      ],
      "payable": false,
      "stateMutability": "view",
      "type": "function"
    },
    {
      "constant": true,
      "inputs": [
        {
          "internalType": "address",
          "name": "",
          "type": "address"
        },
        {
          "internalType": "uint256",
          "name": "",
          "type": "uint256"
        }
      ],
      "name": "supplierOrders",
      "outputs": [
        {
          "internalType": "address",
          "name": "from",
          "type": "address"
        },
        {
          "internalType": "address",
          "name": "to",
          "type": "address"
        },
        {
          "internalType": "uint8",
          "name": "id",
          "type": "uint8"
        },
        {
          "internalType": "uint8",
          "name": "itemId",
          "type": "uint8"
        },
        {
          "internalType": "uint16",
          "name": "quantity",
          "type": "uint16"
        },
        {
          "internalType": "string",
          "name": "quantity_scale",
          "type": "string"
        },
        {
          "internalType": "string",
          "name": "item_name",
          "type": "string"
        },
        {
          "internalType": "uint8",
          "name": "quality",
          "type": "uint8"
        }
      ],
      "payable": false,
      "stateMutability": "view",
      "type": "function"
    },
    {
      "constant": true,
      "inputs": [
        {
          "internalType": "address",
          "name": "",
          "type": "address"
        }
      ],
      "name": "suppliers",
      "outputs": [
        {
          "internalType": "address",
          "name": "id",
          "type": "address"
        },
        {
          "internalType": "string",
          "name": "name",
          "type": "string"
        }
      ],
      "payable": false,
      "stateMutability": "view",
      "type": "function"
    },
    {
      "constant": false,
      "inputs": [
        {
          "internalType": "address",
          "name": "_id",
          "type": "address"
        },
        {
          "internalType": "string",
          "name": "_name",
          "type": "string"
        }
      ],
      "name": "manufacturerSignUp",
      "outputs": [],
      "payable": false,
      "stateMutability": "nonpayable",
      "type": "function"
    },
    {
      "constant": false,
      "inputs": [
        {
          "internalType": "address",
          "name": "_id",
          "type": "address"
        },
        {
          "internalType": "string",
          "name": "_name",
          "type": "string"
        }
      ],
      "name": "supplierSignUp",
      "outputs": [],
      "payable": false,
      "stateMutability": "nonpayable",
      "type": "function"
    },
    {
      "constant": false,
      "inputs": [
        {
          "internalType": "string",
          "name": "_name",
          "type": "string"
        }
      ],
      "name": "retailerSignUp",
      "outputs": [],
      "payable": false,
      "stateMutability": "nonpayable",
      "type": "function"
    },
    {
      "constant": false,
      "inputs": [
        {
          "internalType": "string",
          "name": "_name",
          "type": "string"
        }
      ],
      "name": "consumerSignUp",
      "outputs": [],
      "payable": false,
      "stateMutability": "nonpayable",
      "type": "function"
    },
    {
      "constant": false,
      "inputs": [
        {
          "internalType": "address",
          "name": "_to",
          "type": "address"
        },
        {
          "internalType": "uint64",
          "name": "_value",
          "type": "uint64"
        }
      ],
      "name": "transfer",
      "outputs": [
        {
          "internalType": "bool",
          "name": "success",
          "type": "bool"
        }
      ],
      "payable": false,
      "stateMutability": "nonpayable",
      "type": "function"
    },
    {
      "constant": true,
      "inputs": [],
      "name": "getOwnerInfo",
      "outputs": [
        {
          "internalType": "address",
          "name": "",
          "type": "address"
        }
      ],
      "payable": false,
      "stateMutability": "view",
      "type": "function"
    },
    {
      "constant": true,
      "inputs": [],
      "name": "getManufacturerInfo",
      "outputs": [
        {
          "internalType": "address",
          "name": "",
          "type": "address"
        },
        {
          "internalType": "string",
          "name": "",
          "type": "string"
        },
        {
          "internalType": "uint8[]",
          "name": "",
          "type": "uint8[]"
        }
      ],
      "payable": false,
      "stateMutability": "view",
      "type": "function"
    },
    {
      "constant": true,
      "inputs": [],
      "name": "getSupplierInfo",
      "outputs": [
        {
          "internalType": "address",
          "name": "",
          "type": "address"
        },
        {
          "internalType": "string",
          "name": "",
          "type": "string"
        },
        {
          "internalType": "uint8[]",
          "name": "",
          "type": "uint8[]"
        }
      ],
      "payable": false,
      "stateMutability": "view",
      "type": "function"
    },
    {
      "constant": true,
      "inputs": [],
      "name": "getRetailerInfo",
      "outputs": [
        {
          "internalType": "address",
          "name": "",
          "type": "address"
        },
        {
          "internalType": "string",
          "name": "",
          "type": "string"
        }
      ],
      "payable": false,
      "stateMutability": "view",
      "type": "function"
    },
    {
      "constant": true,
      "inputs": [],
      "name": "getConsumerInfo",
      "outputs": [
        {
          "internalType": "address",
          "name": "",
          "type": "address"
        },
        {
          "internalType": "string",
          "name": "",
          "type": "string"
        }
      ],
      "payable": false,
      "stateMutability": "view",
      "type": "function"
    },
    {
      "constant": false,
      "inputs": [
        {
          "internalType": "address",
          "name": "_to",
          "type": "address"
        },
        {
          "internalType": "uint8",
          "name": "_itemId",
          "type": "uint8"
        },
        {
          "internalType": "uint16",
          "name": "_quantity",
          "type": "uint16"
        },
        {
          "internalType": "string",
          "name": "_quantity_scale",
          "type": "string"
        },
        {
          "internalType": "uint8",
          "name": "_quality",
          "type": "uint8"
        }
      ],
      "name": "placeOrder",
      "outputs": [],
      "payable": false,
      "stateMutability": "nonpayable",
      "type": "function"
    },
    {
      "constant": true,
      "inputs": [],
      "name": "getConsumerOrders",
      "outputs": [
        {
          "components": [
            {
              "internalType": "address",
              "name": "from",
              "type": "address"
            },
            {
              "internalType": "address",
              "name": "to",
              "type": "address"
            },
            {
              "internalType": "uint8",
              "name": "id",
              "type": "uint8"
            },
            {
              "internalType": "uint8",
              "name": "itemId",
              "type": "uint8"
            },
            {
              "internalType": "uint16",
              "name": "quantity",
              "type": "uint16"
            },
            {
              "internalType": "string",
              "name": "quantity_scale",
              "type": "string"
            },
            {
              "internalType": "string",
              "name": "item_name",
              "type": "string"
            },
            {
              "internalType": "uint8",
              "name": "quality",
              "type": "uint8"
            }
          ],
          "internalType": "struct Supplychain.order[]",
          "name": "",
          "type": "tuple[]"
        }
      ],
      "payable": false,
      "stateMutability": "view",
      "type": "function"
    },
    {
      "constant": true,
      "inputs": [],
      "name": "getRetailerOrders",
      "outputs": [
        {
          "components": [
            {
              "internalType": "address",
              "name": "from",
              "type": "address"
            },
            {
              "internalType": "address",
              "name": "to",
              "type": "address"
            },
            {
              "internalType": "uint8",
              "name": "id",
              "type": "uint8"
            },
            {
              "internalType": "uint8",
              "name": "itemId",
              "type": "uint8"
            },
            {
              "internalType": "uint16",
              "name": "quantity",
              "type": "uint16"
            },
            {
              "internalType": "string",
              "name": "quantity_scale",
              "type": "string"
            },
            {
              "internalType": "string",
              "name": "item_name",
              "type": "string"
            },
            {
              "internalType": "uint8",
              "name": "quality",
              "type": "uint8"
            }
          ],
          "internalType": "struct Supplychain.order[]",
          "name": "",
          "type": "tuple[]"
        }
      ],
      "payable": false,
      "stateMutability": "view",
      "type": "function"
    },
    {
      "constant": true,
      "inputs": [],
      "name": "getSupplierOrders",
      "outputs": [
        {
          "components": [
            {
              "internalType": "address",
              "name": "from",
              "type": "address"
            },
            {
              "internalType": "address",
              "name": "to",
              "type": "address"
            },
            {
              "internalType": "uint8",
              "name": "id",
              "type": "uint8"
            },
            {
              "internalType": "uint8",
              "name": "itemId",
              "type": "uint8"
            },
            {
              "internalType": "uint16",
              "name": "quantity",
              "type": "uint16"
            },
            {
              "internalType": "string",
              "name": "quantity_scale",
              "type": "string"
            },
            {
              "internalType": "string",
              "name": "item_name",
              "type": "string"
            },
            {
              "internalType": "uint8",
              "name": "quality",
              "type": "uint8"
            }
          ],
          "internalType": "struct Supplychain.order[]",
          "name": "",
          "type": "tuple[]"
        }
      ],
      "payable": false,
      "stateMutability": "view",
      "type": "function"
    },
    {
      "constant": true,
      "inputs": [],
      "name": "getOtherOrders",
      "outputs": [
        {
          "components": [
            {
              "internalType": "address",
              "name": "from",
              "type": "address"
            },
            {
              "internalType": "address",
              "name": "to",
              "type": "address"
            },
            {
              "internalType": "uint8",
              "name": "id",
              "type": "uint8"
            },
            {
              "internalType": "uint8",
              "name": "itemId",
              "type": "uint8"
            },
            {
              "internalType": "uint16",
              "name": "quantity",
              "type": "uint16"
            },
            {
              "internalType": "string",
              "name": "quantity_scale",
              "type": "string"
            },
            {
              "internalType": "string",
              "name": "item_name",
              "type": "string"
            },
            {
              "internalType": "uint8",
              "name": "quality",
              "type": "uint8"
            }
          ],
          "internalType": "struct Supplychain.order[]",
          "name": "",
          "type": "tuple[]"
        },
        {
          "components": [
            {
              "internalType": "address",
              "name": "from",
              "type": "address"
            },
            {
              "internalType": "address",
              "name": "to",
              "type": "address"
            },
            {
              "internalType": "uint8",
              "name": "id",
              "type": "uint8"
            },
            {
              "internalType": "uint8",
              "name": "itemId",
              "type": "uint8"
            },
            {
              "internalType": "uint16",
              "name": "quantity",
              "type": "uint16"
            },
            {
              "internalType": "string",
              "name": "quantity_scale",
              "type": "string"
            },
            {
              "internalType": "string",
              "name": "item_name",
              "type": "string"
            },
            {
              "internalType": "uint8",
              "name": "quality",
              "type": "uint8"
            }
          ],
          "internalType": "struct Supplychain.order[]",
          "name": "",
          "type": "tuple[]"
        }
      ],
      "payable": false,
      "stateMutability": "view",
      "type": "function"
    },
    {
      "constant": false,
      "inputs": [
        {
          "internalType": "uint8",
          "name": "_id",
          "type": "uint8"
        },
        {
          "internalType": "string",
          "name": "_name",
          "type": "string"
        },
        {
          "internalType": "string",
          "name": "_power",
          "type": "string"
        },
        {
          "internalType": "uint8",
          "name": "_price",
          "type": "uint8"
        }
      ],
      "name": "addMedicines",
      "outputs": [],
      "payable": false,
      "stateMutability": "nonpayable",
      "type": "function"
    },
    {
      "constant": false,
      "inputs": [
        {
          "internalType": "uint8",
          "name": "_id",
          "type": "uint8"
        },
        {
          "internalType": "string",
          "name": "_name",
          "type": "string"
        }
      ],
      "name": "addRawMaterial",
      "outputs": [],
      "payable": false,
      "stateMutability": "nonpayable",
      "type": "function"
    }
  ],
  "bytecode": "0x608060405260008054600160a060020a03191673f7a88b425a72a55b7e641379e7c377b98927f3cb179055600c805460ff1916905534801561004057600080fd5b50613dca806100506000396000f3fe608060405234801561001057600080fd5b50600436106101e1576000357c0100000000000000000000000000000000000000000000000000000000900480638a7a0ca611610116578063dc43c8f7116100b4578063f137a5641161008e578063f137a564146103e5578063f1adc398146103f8578063f29489ef1461040b578063facf83231461041e576101e1565b8063dc43c8f7146103b7578063de6f0722146103ca578063e38af8ab146103d2576101e1565b80639a268f35116100f05780639a268f3514610381578063afd0288314610394578063c747dd18146103a7578063cd1ab4f2146103af576101e1565b80638a7a0ca61461033857806391406e5f1461034b57806397b45b301461036e576101e1565b806367a910481161018357806374a7b0121161015d57806374a7b012146102f157806374f204841461030857806375ee038a1461031057806376acdfa014610325576101e1565b806367a91048146102975780636b5eb09c146102be57806370a08231146102d1576101e1565b806342035b7b116101bf57806342035b7b1461024457806351fbfa52146102595780635d359fbd1461026f5780635f1e47511461028f576101e1565b80630bf53668146101e65780631678e7ab1461021057806316dc15fe14610231575b600080fd5b6101f96101f4366004613609565b610433565b604051610207929190613b5d565b60405180910390f35b61022361021e3660046137a3565b6104e7565b604051610207929190613c0c565b6101f961023f366004613609565b610560565b61024c6105dc565b6040516102079190613bba565b6102616107fe565b604051610207929190613bcb565b61028261027d3660046136b1565b610d56565b6040516102079190613bf0565b6101f9610e16565b6102aa6102a5366004613681565b610f0c565b604051610207989796959493929190613ad8565b6101f96102cc366004613609565b6110d9565b6102e46102df366004613609565b611157565b6040516102079190613bfe565b6102f9611173565b60405161020793929190613b7d565b6101f96112e4565b61032361031e3660046136e1565b61143f565b005b61032361033336600461362f565b612475565b61032361034636600461362f565b612667565b61035e6103593660046137a3565b61284f565b6040516102079493929190613c1a565b6102aa61037c366004613681565b612998565b6101f961038f366004613609565b6129b1565b6103236103a236600461376e565b612a30565b61024c612c20565b61024c612e38565b6103236103c536600461376e565b613050565b6102f9613194565b6103236103e03660046137c1565b61322c565b6102aa6103f3366004613871565b61329c565b6103236104063660046137e0565b6132b5565b6102aa610419366004613681565b613375565b61042661338e565b6040516102079190613aa2565b6004602090815260009182526040918290208054600180830180548651600261010094831615949094026000190190911692909204601f8101869004860283018601909652858252600160a060020a039092169492939092908301828280156104dd5780601f106104b2576101008083540402835291602001916104dd565b820191906000526020600020905b8154815290600101906020018083116104c057829003601f168201915b5050505050905082565b6006602090815260009182526040918290208054600180830180548651600261010094831615949094026000190190911692909204601f810186900486028301860190965285825260ff9092169492939092908301828280156104dd5780601f106104b2576101008083540402835291602001916104dd565b6002602081815260009283526040928390208054600180830180548751601f60001994831615610100029490940190911696909604918201859004850286018501909652808552600160a060020a03909116949193928301828280156104dd5780601f106104b2576101008083540402835291602001916104dd565b336000908152600a60209081526040808320805482518185028101850190935280835260609492939192909184015b828210156107f4576000848152602090819020604080516101008082018352600587029093018054600160a060020a0390811683526001808301549182168488015274010000000000000000000000000000000000000000820460ff908116858701527501000000000000000000000000000000000000000000830416606085015276010000000000000000000000000000000000000000000090910461ffff166080840152600280830180548651938116159097026000190190961604601f81018790048702820187019094528381529194909360a086019390918301828280156107385780601f1061070d57610100808354040283529160200191610738565b820191906000526020600020905b81548152906001019060200180831161071b57829003601f168201915b505050918352505060038201805460408051602060026001851615610100026000190190941693909304601f81018490048402820184019092528181529382019392918301828280156107cc5780601f106107a1576101008083540402835291602001916107cc565b820191906000526020600020905b8154815290600101906020018083116107af57829003601f168201915b50505091835250506004919091015460ff16602091820152908252600192909201910161060b565b5050505090505b90565b6060806108096133b6565b33600090815260046020908152604091829020825180840184528154600160a060020a03168152600180830180548651600261010094831615949094026000190190911692909204601f81018690048602830186019096528582529194929385810193919291908301828280156108c15780601f10610896576101008083540402835291602001916108c1565b820191906000526020600020905b8154815290600101906020018083116108a457829003601f168201915b505050919092525050815191925050600160a060020a03166108e257600080fd5b600b6020908152600160009081527fdf7de25b7f1fd6d0b5205f0e18f1f35bd7b8d84cce336588d184533ce43a6f768054604080518286028101860190915281815291937f72c6bfb7988af3a1efa6568f02a999bc52252641c659d85961ca3d372b57d5cf9385929184015b82821015610b37576000848152602090819020604080516101008082018352600587029093018054600160a060020a0390811683526001808301549182168488015274010000000000000000000000000000000000000000820460ff908116858701527501000000000000000000000000000000000000000000830416606085015276010000000000000000000000000000000000000000000090910461ffff166080840152600280830180548651938116159097026000190190961604601f81018790048702820187019094528381529194909360a08601939091830182828015610a7b5780601f10610a5057610100808354040283529160200191610a7b565b820191906000526020600020905b815481529060010190602001808311610a5e57829003601f168201915b505050918352505060038201805460408051602060026001851615610100026000190190941693909304601f8101849004840282018401909252818152938201939291830182828015610b0f5780601f10610ae457610100808354040283529160200191610b0f565b820191906000526020600020905b815481529060010190602001808311610af257829003601f168201915b50505091835250506004919091015460ff16602091820152908252600192909201910161094e565b50505050915080805480602002602001604051908101604052809291908181526020016000905b82821015610d47576000848152602090819020604080516101008082018352600587029093018054600160a060020a0390811683526001808301549182168488015274010000000000000000000000000000000000000000820460ff908116858701527501000000000000000000000000000000000000000000830416606085015276010000000000000000000000000000000000000000000090910461ffff166080840152600280830180548651938116159097026000190190961604601f81018790048702820187019094528381529194909360a08601939091830182828015610c8b5780601f10610c6057610100808354040283529160200191610c8b565b820191906000526020600020905b815481529060010190602001808311610c6e57829003601f168201915b505050918352505060038201805460408051602060026001851615610100026000190190941693909304601f8101849004840282018401909252818152938201939291830182828015610d1f5780601f10610cf457610100808354040283529160200191610d1f565b820191906000526020600020905b815481529060010190602001808311610d0257829003601f168201915b50505091835250506004919091015460ff166020918201529082526001929092019101610b5e565b50505050905092509250509091565b3360009081526007602052604081205467ffffffffffffffff80841691161015610d7f57600080fd5b33600081815260076020526040808220805467ffffffffffffffff1980821667ffffffffffffffff928316899003831617909255600160a060020a0388168452928290208054918216918416870190931617909155517f831ac82b07fb396dafef0077cea6e002235d88e63f35cbd5df2c065107f1e74a91610e049186908690613ab0565b60405180910390a15060015b92915050565b60006060610e226133b6565b33600090815260046020908152604091829020825180840184528154600160a060020a03168152600180830180548651600261010094831615949094026000190190911692909204601f8101869004860283018601909652858252919492938581019391929190830182828015610eda5780601f10610eaf57610100808354040283529160200191610eda565b820191906000526020600020905b815481529060010190602001808311610ebd57829003601f168201915b505050919092525050815191925050600160a060020a0316610efb57600080fd5b805160209091015190925090509091565b600a6020528160005260406000208181548110610f2557fe5b6000918252602091829020600591909102018054600180830154600280850180546040805161010096831615969096026000190190911692909204601f8101889004880285018801909252818452600160a060020a039485169850938216965074010000000000000000000000000000000000000000820460ff90811696750100000000000000000000000000000000000000000084049091169576010000000000000000000000000000000000000000000090930461ffff169492939291908301828280156110365780601f1061100b57610100808354040283529160200191611036565b820191906000526020600020905b81548152906001019060200180831161101957829003601f168201915b5050505060038301805460408051602060026001851615610100026000190190941693909304601f81018490048402820184019092528181529495949350908301828280156110c65780601f1061109b576101008083540402835291602001916110c6565b820191906000526020600020905b8154815290600101906020018083116110a957829003601f168201915b5050506004909301549192505060ff1688565b600160208181526000928352604092839020805481840180548651600261010097831615979097026000190190911695909504601f8101859004850286018501909652858552600160a060020a03909116949193929091908301828280156104dd5780601f106104b2576101008083540402835291602001916104dd565b60076020526000908152604090205467ffffffffffffffff1681565b60006060806111806133ce565b3360009081526002602081815260409283902083516060810185528154600160a060020a031681526001808301805487516101009382161593909302600019011695909504601f81018590048502820185019096528581529094919385840193919290918301828280156112355780601f1061120a57610100808354040283529160200191611235565b820191906000526020600020905b81548152906001019060200180831161121857829003601f168201915b50505050508152602001600382018054806020026020016040519081016040528092919081815260200182805480156112ab57602002820191906000526020600020906000905b825461010083900a900460ff1681526020600192830181810494850194909303909202910180841161127c5790505b505050919092525050815191925050600160a060020a03166112cc57600080fd5b80516020820151604090920151909591945092509050565b600060606112f06133ce565b3360009081526003602090815260409182902082516060810184528154600160a060020a03168152600180830180548651600261010094831615949094026000190190911692909204601f81018690048602830186019096528582529194929385810193919291908301828280156113a95780601f1061137e576101008083540402835291602001916113a9565b820191906000526020600020905b81548152906001019060200180831161138c57829003601f168201915b5050505050815260200160038201805480602002602001604051908101604052809291908181526020018280548015610eda57602002820191906000526020600020906000905b825461010083900a900460ff168152602060019283018181049485019490930390920291018084116113f0579050505050919092525050815191925050600160a060020a0316610efb57600080fd5b6114476133ce565b3360009081526002602081815260409283902083516060810185528154600160a060020a031681526001808301805487516101009382161593909302600019011695909504601f81018590048502820185019096528581529094919385840193919290918301828280156114fc5780601f106114d1576101008083540402835291602001916114fc565b820191906000526020600020905b8154815290600101906020018083116114df57829003601f168201915b505050505081526020016003820180548060200260200160405190810160405280929190818152602001828054801561157257602002820191906000526020600020906000905b825461010083900a900460ff168152602060019283018181049485019490930390920291018084116115435790505b50505050508152505090506115856133ce565b3360009081526003602090815260409182902082516060810184528154600160a060020a03168152600180830180548651600261010094831615949094026000190190911692909204601f810186900486028301860190965285825291949293858101939192919083018282801561163e5780601f106116135761010080835404028352916020019161163e565b820191906000526020600020905b81548152906001019060200180831161162157829003601f168201915b50505050508152602001600382018054806020026020016040519081016040528092919081815260200182805480156116b457602002820191906000526020600020906000905b825461010083900a900460ff168152602060019283018181049485019490930390920291018084116116855790505b50505050508152505090506116c76133b6565b33600090815260046020908152604091829020825180840184528154600160a060020a03168152600180830180548651600261010094831615949094026000190190911692909204601f810186900486028301860190965285825291949293858101939192919083018282801561177f5780601f106117545761010080835404028352916020019161177f565b820191906000526020600020905b81548152906001019060200180831161176257829003601f168201915b505050919092525050845191925050600160a060020a031615611c17576117a46133b6565b60ff8881166000908152600660209081526040918290208251808401845281549094168452600180820180548551600261010094831615949094026000190190911692909204601f81018590048502830185019095528482529193858401939192918301828280156118575780601f1061182c57610100808354040283529160200191611857565b820191906000526020600020905b81548152906001019060200180831161183a57829003601f168201915b5050505050815250509050600b60008060ff16815260200190815260200160002060405180610100016040528033600160a060020a031681526020018b600160a060020a03168152602001600c60009054906101000a900460ff1660ff1681526020018a60ff1681526020018961ffff168152602001888152602001836020015181526020018760ff168152509080600181540180825580915050906001820390600052602060002090600502016000909192909190915060008201518160000160006101000a815481600160a060020a030219169083600160a060020a0316021790555060208201518160010160006101000a815481600160a060020a030219169083600160a060020a0316021790555060408201518160010160146101000a81548160ff021916908360ff16021790555060608201518160010160156101000a81548160ff021916908360ff16021790555060808201518160010160166101000a81548161ffff021916908361ffff16021790555060a08201518160020190805190602001906119ea9291906133f8565b5060c08201518051611a069160038401916020909101906133f8565b5060e08201518160040160006101000a81548160ff021916908360ff160217905550505050600a600033600160a060020a0316600160a060020a0316815260200190815260200160002060405180610100016040528033600160a060020a031681526020018b600160a060020a03168152602001600c60009054906101000a900460ff1660ff1681526020018a60ff1681526020018961ffff168152602001888152602001836020015181526020018760ff168152509080600181540180825580915050906001820390600052602060002090600502016000909192909190915060008201518160000160006101000a815481600160a060020a030219169083600160a060020a0316021790555060208201518160010160006101000a815481600160a060020a030219169083600160a060020a0316021790555060408201518160010160146101000a81548160ff021916908360ff16021790555060608201518160010160156101000a81548160ff021916908360ff16021790555060808201518160010160166101000a81548161ffff021916908361ffff16021790555060a0820151816002019080519060200190611bc29291906133f8565b5060c08201518051611bde9160038401916020909101906133f8565b5060e091909101516004909101805460ff1990811660ff93841617909155600c80549182169183166001019092161790555061246b9050565b8151600160a060020a0316156120fe57611c2f613476565b60ff888116600090815260056020908152604091829020825160808101845281549094168452600180820180548551600261010094831615949094026000190190911692909204601f8101859004850283018501909552848252919385840193919291830182828015611ce35780601f10611cb857610100808354040283529160200191611ce3565b820191906000526020600020905b815481529060010190602001808311611cc657829003601f168201915b5050509183525050600282810180546040805160206001841615610100026000190190931694909404601f81018390048302850183019091528084529381019390830182828015611d755780601f10611d4a57610100808354040283529160200191611d75565b820191906000526020600020905b815481529060010190602001808311611d5857829003601f168201915b505050505081526020016003820160009054906101000a900460ff1660ff1660ff16815250509050600b6000600160ff16815260200190815260200160002060405180610100016040528033600160a060020a031681526020018b600160a060020a03168152602001600c60009054906101000a900460ff1660ff1681526020018a60ff1681526020018961ffff168152602001888152602001836020015181526020018760ff168152509080600181540180825580915050906001820390600052602060002090600502016000909192909190915060008201518160000160006101000a815481600160a060020a030219169083600160a060020a0316021790555060208201518160010160006101000a815481600160a060020a030219169083600160a060020a0316021790555060408201518160010160146101000a81548160ff021916908360ff16021790555060608201518160010160156101000a81548160ff021916908360ff16021790555060808201518160010160166101000a81548161ffff021916908361ffff16021790555060a0820151816002019080519060200190611f269291906133f8565b5060c08201518051611f429160038401916020909101906133f8565b5060e08201518160040160006101000a81548160ff021916908360ff1602179055505050506009600033600160a060020a0316600160a060020a0316815260200190815260200160002060405180610100016040528033600160a060020a031681526020018b600160a060020a03168152602001600c60009054906101000a900460ff1660ff1681526020018a60ff1681526020018961ffff168152602001888152602001836020015181526020018760ff168152509080600181540180825580915050906001820390600052602060002090600502016000909192909190915060008201518160000160006101000a815481600160a060020a030219169083600160a060020a0316021790555060208201518160010160006101000a815481600160a060020a030219169083600160a060020a0316021790555060408201518160010160146101000a81548160ff021916908360ff16021790555060608201518160010160156101000a81548160ff021916908360ff16021790555060808201518160010160166101000a81548161ffff021916908361ffff16021790555060a0820151816002019080519060200190611bc29291906133f8565b8051600160a060020a03161561246b57612116613476565b60ff888116600090815260056020908152604091829020825160808101845281549094168452600180820180548551600261010094831615949094026000190190911692909204601f81018590048502830185019095528482529193858401939192918301828280156121ca5780601f1061219f576101008083540402835291602001916121ca565b820191906000526020600020905b8154815290600101906020018083116121ad57829003601f168201915b5050509183525050600282810180546040805160206001841615610100026000190190931694909404601f8101839004830285018301909152808452938101939083018282801561225c5780601f106122315761010080835404028352916020019161225c565b820191906000526020600020905b81548152906001019060200180831161223f57829003601f168201915b505050505081526020016003820160009054906101000a900460ff1660ff1660ff168152505090506008600033600160a060020a0316600160a060020a0316815260200190815260200160002060405180610100016040528033600160a060020a031681526020018b600160a060020a03168152602001600c60009054906101000a900460ff1660ff1681526020018a60ff1681526020018961ffff168152602001888152602001836020015181526020018760ff168152509080600181540180825580915050906001820390600052602060002090600502016000909192909190915060008201518160000160006101000a815481600160a060020a030219169083600160a060020a0316021790555060208201518160010160006101000a815481600160a060020a030219169083600160a060020a0316021790555060408201518160010160146101000a81548160ff021916908360ff16021790555060608201518160010160156101000a81548160ff021916908360ff16021790555060808201518160010160166101000a81548161ffff021916908361ffff16021790555060a082015181600201908051906020019061241b9291906133f8565b5060c082015180516124379160038401916020909101906133f8565b5060e091909101516004909101805460ff1990811660ff93841617909155600c805491821691831660010190921617905550505b5050505050505050565b61247d6133ce565b600160a060020a038381166000908152600260208181526040928390208351606081018552815490951685526001808201805486516101009382161593909302600019011694909404601f810184900484028201840190955284815290938583019391928301828280156125325780601f1061250757610100808354040283529160200191612532565b820191906000526020600020905b81548152906001019060200180831161251557829003601f168201915b50505050508152602001600382018054806020026020016040519081016040528092919081815260200182805480156125a857602002820191906000526020600020906000905b825461010083900a900460ff168152602060019283018181049485019490930390920291018084116125795790505b505050919092525050815191925050600160a060020a0316156125ca57600080fd5b60408051606081018252600160a060020a0385811680835260208084018781528551600080825281840188528688019190915292835260028252949091208351815473ffffffffffffffffffffffffffffffffffffffff19169316929092178255925180519293919261264392600185019201906133f8565b506040820151805161265f9160038401916020909101906134a4565b505050505050565b600054600160a060020a0316331461267e57600080fd5b6126866133ce565b600160a060020a0383811660009081526001602081815260409283902083516060810185528154909516855280830180548551600261010096831615969096026000190190911694909404601f81018490048402850184019095528484529093858301939283018282801561273c5780601f106127115761010080835404028352916020019161273c565b820191906000526020600020905b81548152906001019060200180831161271f57829003601f168201915b50505050508152602001600382018054806020026020016040519081016040528092919081815260200182805480156127b257602002820191906000526020600020906000905b825461010083900a900460ff168152602060019283018181049485019490930390920291018084116127835790505b505050919092525050815191925050600160a060020a0316156127d457600080fd5b60408051606081018252600160a060020a038581168083526020808401878152855160008082528184018852868801919091529283526001808352959092208451815473ffffffffffffffffffffffffffffffffffffffff1916941693909317835590518051939492936126439385019291909101906133f8565b6005602090815260009182526040918290208054600180830180548651600261010094831615949094026000190190911692909204601f810186900486028301860190965285825260ff9092169492939092908301828280156128f35780601f106128c8576101008083540402835291602001916128f3565b820191906000526020600020905b8154815290600101906020018083116128d657829003601f168201915b50505060028085018054604080516020601f60001961010060018716150201909416959095049283018590048502810185019091528181529596959450909250908301828280156129855780601f1061295a57610100808354040283529160200191612985565b820191906000526020600020905b81548152906001019060200180831161296857829003601f168201915b5050506003909301549192505060ff1684565b60086020528160005260406000208181548110610f2557fe5b6003602090815260009182526040918290208054600180830180548651600261010094831615949094026000190190911692909204601f8101869004860283018601909652858252600160a060020a039092169492939092908301828280156104dd5780601f106104b2576101008083540402835291602001916104dd565b612a386133ce565b3360009081526003602090815260409182902082516060810184528154600160a060020a03168152600180830180548651600261010094831615949094026000190190911692909204601f8101869004860283018601909652858252919492938581019391929190830182828015612af15780601f10612ac657610100808354040283529160200191612af1565b820191906000526020600020905b815481529060010190602001808311612ad457829003601f168201915b5050505050815260200160038201805480602002602001604051908101604052809291908181526020018280548015612b6757602002820191906000526020600020906000905b825461010083900a900460ff16815260206001928301818104948501949093039092029101808411612b385790505b505050919092525050815191925050600160a060020a031615612b8957600080fd5b604080516060810182523380825260208083018681528451600080825281840187528587019190915292835260038252939091208251815473ffffffffffffffffffffffffffffffffffffffff1916600160a060020a0390911617815592518051929392612bfd92600185019201906133f8565b5060408201518051612c199160038401916020909101906134a4565b5050505050565b336000908152600860209081526040808320805482518185028101850190935280835260609492939192909184015b828210156107f4576000848152602090819020604080516101008082018352600587029093018054600160a060020a0390811683526001808301549182168488015274010000000000000000000000000000000000000000820460ff908116858701527501000000000000000000000000000000000000000000830416606085015276010000000000000000000000000000000000000000000090910461ffff166080840152600280830180548651938116159097026000190190961604601f81018790048702820187019094528381529194909360a08601939091830182828015612d7c5780601f10612d5157610100808354040283529160200191612d7c565b820191906000526020600020905b815481529060010190602001808311612d5f57829003601f168201915b505050918352505060038201805460408051602060026001851615610100026000190190941693909304601f8101849004840282018401909252818152938201939291830182828015612e105780601f10612de557610100808354040283529160200191612e10565b820191906000526020600020905b815481529060010190602001808311612df357829003601f168201915b50505091835250506004919091015460ff166020918201529082526001929092019101612c4f565b336000908152600960209081526040808320805482518185028101850190935280835260609492939192909184015b828210156107f4576000848152602090819020604080516101008082018352600587029093018054600160a060020a0390811683526001808301549182168488015274010000000000000000000000000000000000000000820460ff908116858701527501000000000000000000000000000000000000000000830416606085015276010000000000000000000000000000000000000000000090910461ffff166080840152600280830180548651938116159097026000190190961604601f81018790048702820187019094528381529194909360a08601939091830182828015612f945780601f10612f6957610100808354040283529160200191612f94565b820191906000526020600020905b815481529060010190602001808311612f7757829003601f168201915b505050918352505060038201805460408051602060026001851615610100026000190190941693909304601f81018490048402820184019092528181529382019392918301828280156130285780601f10612ffd57610100808354040283529160200191613028565b820191906000526020600020905b81548152906001019060200180831161300b57829003601f168201915b50505091835250506004919091015460ff166020918201529082526001929092019101612e67565b6130586133b6565b33600090815260046020908152604091829020825180840184528154600160a060020a03168152600180830180548651600261010094831615949094026000190190911692909204601f81018690048602830186019096528582529194929385810193919291908301828280156131105780601f106130e557610100808354040283529160200191613110565b820191906000526020600020905b8154815290600101906020018083116130f357829003601f168201915b505050919092525050815191925050600160a060020a03161561313257600080fd5b604080518082018252338082526020808301868152600092835260048252939091208251815473ffffffffffffffffffffffffffffffffffffffff1916600160a060020a0390911617815592518051929392612c1992600185019201906133f8565b60006060806131a16133ce565b3360009081526001602081815260409283902083516060810185528154600160a060020a0316815281840180548651600261010097831615979097026000190190911695909504601f810185900485028601850190965285855290949193858401939092908301828280156112355780601f1061120a57610100808354040283529160200191611235565b60ff808316600090815260066020526040902080549091161561324e57600080fd5b60408051808201825260ff8581168083526020808401878152600092835260068252949091208351815460ff19169316929092178255925180519293919261265f92600185019201906133f8565b600b6020528160005260406000208181548110610f2557fe5b60ff80851660009081526005602052604090208054909116156132d757600080fd5b6040805160808101825260ff87811680835260208084018981528486018990528784166060860152600092835260058252949091208351815460ff19169316929092178255925180519293919261333492600185019201906133f8565b50604082015180516133509160028401916020909101906133f8565b50606091909101516003909101805460ff191660ff9092169190911790555050505050565b60096020528160005260406000208181548110610f2557fe5b60008054600160a060020a031633146133a657600080fd5b50600054600160a060020a031690565b60408051808201909152600081526060602082015290565b60405180606001604052806000600160a060020a0316815260200160608152602001606081525090565b828054600181600116156101000203166002900490600052602060002090601f016020900481019282601f1061343957805160ff1916838001178555613466565b82800160010185558215613466579182015b8281111561346657825182559160200191906001019061344b565b50613472929150613546565b5090565b6040518060800160405280600060ff1681526020016060815260200160608152602001600060ff1681525090565b82805482825590600052602060002090601f0160209004810192821561353a5791602002820160005b8382111561350b57835183826101000a81548160ff021916908360ff16021790555092602001926001016020816000010492830192600103026134cd565b80156135385782816101000a81549060ff021916905560010160208160000104928301926001030261350b565b505b50613472929150613560565b6107fb91905b80821115613472576000815560010161354c565b6107fb91905b8082111561347257805460ff19168155600101613566565b8035610e1081613d4c565b600082601f83011261359a57600080fd5b81356135ad6135a882613c84565b613c5d565b915080825260208301602083018583830111156135c957600080fd5b6135d4838284613d06565b50505092915050565b8035610e1081613d63565b8035610e1081613d6c565b8035610e1081613d75565b8035610e1081613d7e565b60006020828403121561361b57600080fd5b6000613627848461357e565b949350505050565b6000806040838503121561364257600080fd5b600061364e858561357e565b925050602083013567ffffffffffffffff81111561366b57600080fd5b61367785828601613589565b9150509250929050565b6000806040838503121561369457600080fd5b60006136a0858561357e565b9250506020613677858286016135e8565b600080604083850312156136c457600080fd5b60006136d0858561357e565b9250506020613677858286016135f3565b600080600080600060a086880312156136f957600080fd5b6000613705888861357e565b9550506020613716888289016135fe565b9450506040613727888289016135dd565b935050606086013567ffffffffffffffff81111561374457600080fd5b61375088828901613589565b9250506080613761888289016135fe565b9150509295509295909350565b60006020828403121561378057600080fd5b813567ffffffffffffffff81111561379757600080fd5b61362784828501613589565b6000602082840312156137b557600080fd5b600061362784846135fe565b600080604083850312156137d457600080fd5b600061364e85856135fe565b600080600080608085870312156137f657600080fd5b600061380287876135fe565b945050602085013567ffffffffffffffff81111561381f57600080fd5b61382b87828801613589565b935050604085013567ffffffffffffffff81111561384857600080fd5b61385487828801613589565b9250506060613865878288016135fe565b91505092959194509250565b6000806040838503121561388457600080fd5b60006136a085856135fe565b600061389c83836139d7565b9392505050565b60006138af8383613a99565b505060200190565b6138c081613cf5565b82525050565b6138c081613cbf565b60006138da82613cb2565b6138e48185613cb6565b9350836020820285016138f685613cac565b8060005b8581101561393057848403895281516139138582613890565b945061391e83613cac565b60209a909a01999250506001016138fa565b5091979650505050505050565b600061394882613cb2565b6139528185613cb6565b935061395d83613cac565b8060005b8381101561398b57815161397588826138a3565b975061398083613cac565b925050600101613961565b509495945050505050565b6138c081613cca565b60006139aa82613cb2565b6139b48185613cb6565b93506139c4818560208601613d12565b6139cd81613d42565b9093019392505050565b80516000906101008401906139ec85826138c6565b5060208301516139ff60208601826138c6565b506040830151613a126040860182613a99565b506060830151613a256060860182613a99565b506080830151613a386080860182613a87565b5060a083015184820360a0860152613a50828261399f565b91505060c083015184820360c0860152613a6a828261399f565b91505060e0830151613a7f60e0860182613a99565b509392505050565b6138c081613ccf565b6138c081613ce2565b6138c081613cef565b60208101610e1082846138c6565b60608101613abe82866138b7565b613acb60208301856138c6565b6136276040830184613a90565b6101008101613ae7828b6138c6565b613af4602083018a6138c6565b613b016040830189613a99565b613b0e6060830188613a99565b613b1b6080830187613a87565b81810360a0830152613b2d818661399f565b905081810360c0830152613b41818561399f565b9050613b5060e0830184613a99565b9998505050505050505050565b60408101613b6b82856138c6565b8181036020830152613627818461399f565b60608101613b8b82866138c6565b8181036020830152613b9d818561399f565b90508181036040830152613bb1818461393d565b95945050505050565b6020808252810161389c81846138cf565b60408082528101613bdc81856138cf565b9050818103602083015261362781846138cf565b60208101610e108284613996565b60208101610e108284613a90565b60408101613b6b8285613a99565b60808101613c288287613a99565b8181036020830152613c3a818661399f565b90508181036040830152613c4e818561399f565b9050613bb16060830184613a99565b60405181810167ffffffffffffffff81118282101715613c7c57600080fd5b604052919050565b600067ffffffffffffffff821115613c9b57600080fd5b506020601f91909101601f19160190565b60200190565b5190565b90815260200190565b6000610e1082613cd6565b151590565b61ffff1690565b600160a060020a031690565b67ffffffffffffffff1690565b60ff1690565b6000610e10826000610e1082613cbf565b82818337506000910152565b60005b83811015613d2d578181015183820152602001613d15565b83811115613d3c576000848401525b50505050565b601f01601f191690565b613d5581613cbf565b8114613d6057600080fd5b50565b613d5581613ccf565b613d55816107fb565b613d5581613ce2565b613d5581613cef56fea365627a7a723158208c38f89580c6bf467b862290804a934374465d70cedf8f424e4b3ec2400e42176c6578706572696d656e74616cf564736f6c63430005110040",
  "source": "pragma solidity >=0.4.21 <0.7.0;\r\npragma experimental ABIEncoderV2;\r\n\r\ncontract Supplychain{\r\n\r\n    address owner = 0xf7a88B425A72A55b7e641379e7C377B98927F3cb; //assign address from ganache before starting app\r\n    mapping(address => manufacturer) public manufacturers;\r\n    mapping(address => supplier) public suppliers;\r\n    mapping(address => retailer) public retailers;\r\n    mapping(address => consumer) public consumers;\r\n    mapping(uint8 => medicine) public medicines;\r\n    mapping(uint8 => rawMaterial) public rawMaterials;\r\n\r\n    mapping(address => uint64) public balanceOf; //to maintain balance of users\r\n    \r\n    mapping(address => order[]) public consumerOrders;\r\n    mapping(address => order[]) public retailerOrders;\r\n    mapping(address => order[]) public supplierOrders;\r\n    mapping(uint8 => order[]) public orders;\r\n    //mapping to store orders b/w different role actors\r\n    //for int =0, orders from supplier to manufacturer will be stored\r\n    //for int =1, orders from retailer to supplier will be stored\r\n    \r\n\r\n\r\n    uint8 orderno=0; //update on placing the order\r\n\r\n    struct order{\r\n        address from;\r\n        address to;\r\n        uint8 id;   \r\n        uint8 itemId;\r\n        uint16 quantity;\r\n        string quantity_scale;\r\n        string item_name;\r\n        uint8 quality;\r\n    }\r\n \r\n    struct manufacturer {\r\n        address id;\r\n        string name;\r\n        mapping (uint8 => uint128) availableMaterial; //mapping of available raw material id => amount\r\n        uint8[] materialAmount;\r\n    }\r\n\r\n    struct supplier {\r\n        address id;\r\n        string name;\r\n        mapping (uint8 => uint16) availableMedicines; //mapping of available medicines id => amount\r\n        uint8[] medicineAmount;\r\n    }\r\n    \r\n    struct consumer {\r\n        address id;\r\n        string name;\r\n    }\r\n    \r\n    struct retailer {\r\n        address id;\r\n        string name;\r\n        mapping (uint8 => uint8) availableStock; //mapping of available medicines id => amount\r\n        uint8[] stock;\r\n    }\r\n\r\n    struct medicine {\r\n        uint8 id;\r\n        string name;\r\n        string power;\r\n        uint8 price;\r\n    }\r\n\r\n    struct rawMaterial{\r\n        uint8 id;\r\n        string name;\r\n        \r\n    }\r\n\r\n    //owner verification modifier\r\n    modifier onlyOwner() {\r\n        require(msg.sender == owner);\r\n        _;\r\n    }\r\n  \r\n\r\n/************************************************************************************************\r\n                            SignUp functions\r\n**************************************************************************************************/\r\n\r\n\r\n\r\n    function manufacturerSignUp(address _id, string memory _name) public onlyOwner() {\r\n        manufacturer memory m= manufacturers[_id];\r\n        require(!(m.id > address(0x0)));\r\n        manufacturers[_id]= manufacturer({id:_id, name:_name,materialAmount:new uint8[](0)});\r\n    }\r\n\r\n    \r\n    function supplierSignUp(address _id, string memory _name) public {\r\n        supplier memory s= suppliers[_id];\r\n        require(!(s.id > address(0x0)));\r\n        suppliers[_id]= supplier({id:_id, name:_name,medicineAmount:new uint8[](0)});\r\n    }\r\n\r\n    \r\n    function retailerSignUp( string memory _name) public {\r\n        retailer memory r= retailers[msg.sender];\r\n        require(!(r.id > address(0x0)));\r\n        retailers[msg.sender]= retailer({id:msg.sender, name:_name,stock:new uint8[](0)});\r\n    }\r\n\r\n    \r\n    function consumerSignUp( string memory _name) public{\r\n        consumer memory c= consumers[msg.sender];\r\n        require(!(c.id > address(0x0)));\r\n        consumers[msg.sender]= consumer({id:msg.sender, name:_name});\r\n    }\r\n\r\n   \r\n\r\n/************************************************************************************************\r\n                            Utility functions\r\n**************************************************************************************************/\r\n\r\n\r\n    event Transfer(address from, address to, uint64 _value);\r\n    function transfer(address _to, uint64 _value) public returns (bool success) {\r\n        require(balanceOf[msg.sender] >= _value);\r\n        balanceOf[msg.sender] -= _value;\r\n        balanceOf[_to] += _value;\r\n        emit Transfer(msg.sender, _to, _value);\r\n        return true;\r\n    } \r\n\r\n    function getOwnerInfo() public view onlyOwner() returns(address){\r\n        return owner;\r\n    }\r\n    function getManufacturerInfo() public view returns(address, string memory, uint8[] memory){\r\n        manufacturer memory m = manufacturers[msg.sender];\r\n        require(m.id > address(0x0));\r\n        return (m.id, m.name, m.materialAmount);\r\n    }\r\n\r\n    function getSupplierInfo() public view returns(address, string memory, uint8[] memory){\r\n        supplier memory s = suppliers[msg.sender];\r\n        require(s.id > address(0x0));\r\n        return (s.id, s.name, s.medicineAmount);\r\n    }\r\n\r\n    function getRetailerInfo() public view returns(address, string memory){\r\n        retailer memory r = retailers[msg.sender];\r\n        require(r.id > address(0x0));\r\n        return (r.id, r.name);\r\n    }\r\n\r\n    function getConsumerInfo() public view returns(address, string memory){\r\n        consumer memory c = consumers[msg.sender];\r\n        require(c.id > address(0x0));\r\n        return(c.id, c.name);\r\n    }\r\n\r\n    function placeOrder( address _to, uint8 _itemId, uint16 _quantity, string memory _quantity_scale, uint8 _quality) public {\r\n        supplier memory s= suppliers[msg.sender];\r\n        retailer memory r= retailers[msg.sender];\r\n        consumer memory c= consumers[msg.sender];\r\n        if(s.id > address(0x0))\r\n        {\r\n            rawMaterial memory rm = rawMaterials[_itemId];\r\n            // manufacturer storage m = manufacturers[_to];\r\n            // require(m.id > address(0x0));\r\n            // require(m.availableMaterial[_itemId] >= _quantity);\r\n            // m.availableMaterial[_itemId] = m.availableMaterial[_itemId] - _quantity;\r\n            orders[0].push(order({id:orderno, from:msg.sender, to:_to, itemId: _itemId , item_name: rm.name, quantity: _quantity,  quantity_scale:_quantity_scale, quality: _quality}));\r\n            supplierOrders[msg.sender].push(order({id:orderno, from:msg.sender, to:_to, itemId: _itemId, item_name: rm.name, quantity: _quantity, quantity_scale:_quantity_scale, quality: _quality}));\r\n            orderno++;\r\n        }\r\n\r\n        else if(r.id > address(0x0))\r\n        {\r\n            // supplier storage s = suppliers[_to];\r\n            // require(s.id > address(0x0));\r\n            // require(s.availableMedicines[_itemId] >= _quantity);\r\n            medicine memory m = medicines[_itemId];\r\n            orders[1].push(order({id:orderno, from:msg.sender, to:_to, itemId: _itemId , item_name: m.name, quantity: _quantity, quantity_scale:_quantity_scale, quality: _quality}));\r\n            retailerOrders[msg.sender].push(order({id:orderno, from:msg.sender, to:_to, itemId: _itemId , item_name: m.name, quantity: _quantity, quantity_scale:_quantity_scale, quality: _quality}));\r\n            orderno++;\r\n        }\r\n\r\n        else if(c.id > address(0x0))\r\n        {\r\n            medicine memory m = medicines[_itemId];    \r\n            consumerOrders[msg.sender].push(order({id:orderno, from:msg.sender, to:_to, itemId: _itemId , item_name: m.name, quantity: _quantity, quantity_scale:_quantity_scale, quality: _quality}));\r\n            orderno++;\r\n        }\r\n    }\r\n\r\n    function getConsumerOrders() public view returns(order[] memory){\r\n        \r\n        return consumerOrders[msg.sender];\r\n    }\r\n\r\n    function getRetailerOrders() public view returns(order[] memory){\r\n        \r\n        return retailerOrders[msg.sender];\r\n    }\r\n    function getSupplierOrders() public view returns(order[] memory){\r\n        \r\n        return supplierOrders[msg.sender];\r\n    }\r\n\r\n    function getOtherOrders() public view returns(order[] memory, order[] memory){\r\n        consumer memory c= consumers[msg.sender];\r\n        require(c.id > address(0x0));\r\n        \r\n        return (orders[0],orders[1]);\r\n    }\r\n\r\n    function addMedicines(uint8 _id, string memory _name, string memory _power, uint8 _price) public {\r\n        \r\n        medicine storage m = medicines[_id];\r\n        require(m.id == 0);\r\n        medicines[_id] = medicine({id: _id, name: _name, power: _power, price: _price});\r\n    }\r\n\r\n    \r\n    function addRawMaterial(uint8 _id, string memory _name) public {\r\n        \r\n        rawMaterial storage rm = rawMaterials[_id];\r\n        require(rm.id == 0);\r\n        rawMaterials[_id]= rawMaterial({id: _id, name: _name});\r\n    }\r\n\r\n    // function updateRetailerStock(uint8 _itemId, uint8 _amount) public {\r\n    //     retailer storage r = retailers[msg.sender];\r\n    //     require(r.id > address(0x0));\r\n    //     r.availableStock[_itemId] = _amount;\r\n    // }\r\n\r\n    // function updateSupplierStock(uint8 _itemId, uint8 _amount) public {\r\n    //     supplier storage s = suppliers[msg.sender];\r\n    //     require(s.id > address(0x0));\r\n    //     s.availableMedicines[_itemId] = _amount;\r\n    // }\r\n\r\n    // function updateManufacturerStock(uint8 _itemId, uint8 _amount) public {\r\n    //     manufacturer storage m = manufacturers[msg.sender];\r\n    //     require(m.id > address(0x0));\r\n    //     m.availableMaterial[_itemId] = _amount;\r\n    // }\r\n}",
  "sourcePath": "C:\\Users\\URVASHI\\OneDrive\\Desktop\\Mnnit files\\THESIS WORK\\Thesis project\\Tutorial\\test-App\\contracts\\supplychain.sol",
  "compiler": {
    "name": "solc",
    "version": "0.5.17+commit.d19bba13.Emscripten.clang"
  },
  "schemaVersion": "3.4.4",
  "updatedAt": "2022-05-02T06:35:08.353Z",
  "networkType": "ethereum",
  "devdoc": {
    "methods": {}
  },
  "userdoc": {
    "methods": {
      "manufacturerSignUp(address,string)": {
        "notice": "********************************************************************************************** SignUp functions*************************************************************************************************"
      }
    }
  }
}